:020000040800F2
:1000000000100020DD170008291800082918000832
:1000100000000000000000000000000000000000E0
:100020000000000000000000000000002918000887
:10003000000000000000000029180008950A0008D0
:10004000291800082918000829180008291800088C
:10005000291800082918000829180008291800087C
:10006000291800082918000829180008291800086C
:10007000291800082918000829180008291800085C
:100080002918000829180008000000002918000895
:10009000291800082918000829180008291800083C
:1000A000291800082918000829180008B5070008B1
:1000B00029180008000000002918000800000000AE
:0400C0005FF808F1EC
:1000C400002934D00123002210B488422CD3012407
:1000D4002407A14204D2814202D209011B01F8E79C
:1000E400E400A14204D2814202D249005B00F8E755
:1000F400884201D3401A1A434C08A04202D3001B81
:100104005C0822438C08A04202D3001B9C082243B3
:10011400CC08A04202D3001BDC082243002803D0F1
:100124001B0901D00909E3E7101C10BC7047002823
:1001340001D00020C04307B4024802A14018029035
:1001440003BDC046190000000029F0D003B5FFF735
:10015400B9FF0EBC4243891A1847C0467047C046CF
:1001640080B584B000AF80239B05181C012100F0EA
:100174008BFF80239B02181C012100F049FF3B1CCC
:10018400083310221A603B1C083303221A713B1CEB
:1001940008330022DA719023DA053B1C0833101C63
:1001A400191C00F003FD3B1C00221A603B1C0022BA
:1001B4005A603B1C0020191C00F074FC0020012133
:1001C40000F09CFCBD4604B080BDC04680B582B042
:1001D40000AF3B1C00221A713B1C0022DA713B1C4D
:1001E40001221A609023DA053B1C101C191C00F034
:1001F400DDFC3B1C00221A60114A3B1C101C191C1C
:1002040000F0D4FC3B1C0F4A1A600F4A3B1C101C24
:10021400191C00F0CBFC3B1C00221A600B4A3B1C4F
:10022400101C191C00F0C2FC3B1C03221A60084A73
:100234003B1C101C191C00F0B9FCBD4602B080BD6B
:10024400000400480FE0000000080048000C0048CB
:100254000014004890B583B000AF204B204A1A60C8
:100264001E4B00225A601D4B00229A601B4B8022B9
:100274005200DA60194B00221A611A4B1A4A1A60AA
:10028400184B00225A60174B00229A60154B8022AB
:100294005200DA60134B00221A6100F087F9FC1D4A
:1002A40096239B01181C08214E22012300F024F8F8
:1002B400031C23700D4A0E4B101C191C00F040FA4D
:1002C4000C4B1B680B4A126812680D210A431A6012
:1002D400FB1D1B78181CBD4603B090BD60000020B8
:1002E400740100204C00002074000020FD0400086C
:1002F4004D0500080000002080B582B000AF786092
:10030400081C111C1A1CFB1C1870BB1C19707B1CCC
:100314001A707B68181C00F0A1F9FB1C1B78082BD1
:1003240002D0092B09D012E03A4B1B68394A1268F3
:100334001168394A0A401A600BE0364B1B68354A8B
:1003440012681268802149010A431A6001E00323FC
:100354005CE0BB1C1B784E2B28D04F2B13D0452BB5
:100364002DD12C4B1B682B4A126812688021C900BE
:100374000A431A60274B1B68264A12681168274AE9
:100384000A401A601DE0234B1B68224A1268126857
:100394008021C9000A431A601E4B1B681D4A12685B
:1003A4001268802189000A431A600AE0194B1B680D
:1003B400184A126811681A4A0A401A6001E00223B6
:1003C40024E07B1C1B78012B02D0022B09D01AE0FD
:1003D400104B1B680F4A12685168124A0A405A604F
:1003E40013E00C4B1B680B4A126851680A4A0A4016
:1003F4005A60084B1B68074A1268526880218901B9
:100404000A435A6001E0042300E00123181CBD469E
:1004140002B080BD00000020FFEFFFFFFFFDFFFFE3
:10042400FFFBFFFFFFCFFFFF80B584B000AF021CCE
:10043400FB1D1A703B1C0F3306221A702A4B1B68D3
:100444001A68402313405A1E9341DAB23B1C0E3300
:100454001A70264A264B101C191C002200F0E2FEDA
:10046400244BDA68234B1B69D31ABB601F49204A0B
:100474003B1C0E331B78081C111C1A1C00F0D2FE06
:10048400BB68002B29D01B4B1A681A4B5B68D31826
:10049400FA1D12781A70174B5B685A1C154B5A6078
:1004A400144B5A68FF231A40124B5A600F4A104BE0
:1004B400101C191C002200F0B5FE0E4B1B695A1CBF
:1004C4000C4B1A61094A0A4B101C191C012200F03A
:1004D400A9FE3B1C0F3301221A703B1C0F331B78FF
:1004E400181CBD4604B080BD000000200038014047
:1004F400070107004C00002080B582B000AF021C49
:10050400FB1D1A700F4B1B69FF2B17D80D4B1A6874
:100514000C4B5B68D318FA1D12781A70094B5B6890
:100524005A1C084B5A60074B5A68FF231A40054B64
:100534005A60044B1B695A1C024B1A61BD4602B037
:1005440080BDC0466000002080B500AF134B1B691E
:10055400002B19D0124B1A68104B19680F4B9B686B
:10056400CB181B7813850D4B9B685A1C0B4B9A6058
:100574000A4B9A68FF231A40084B9A60074B1B6981
:100584005A1E064B1A6106E0064A074B101C191C3A
:10059400002200F047FEBD4680BDC0464C0000204E
:1005A40000000020003801400701070080B588B032
:1005B40000AF8023DB01181C012100F047FD8023DC
:1005C4009B02181C012100F023FD3B1C1833C022A0
:1005D400D2001A603B1C183302221A713B1C1833D8
:1005E40003225A713B1C183300229A713B1C1833A6
:1005F4000122DA719023DA053B1C1833101C191CF4
:1006040000F0D4FA9023DB05181C0921012200F024
:1006140075FB9023DB05181C0A21012200F06EFBF8
:100624003B1C962292011A603B1C00225A603B1C20
:1006340000229A603B1C0022DA603B1C00225A61B3
:100644003B1C0C221A61044A3B1C101C191C00F0B0
:1006540039FDBD4608B080BD0038014080B58EB07C
:1006640000AF786000233B630023FB6200237B63BD
:100674000023BB623B1C0C33181C00F0E3FB3B1C47
:100684000C339B68FB622D4B1B681A6880231B028A
:1006940013400ED0FA6A131C9B009B189A009A18F8
:1006A4007B685B00101C191CFFF70AFD031C7B63AD
:1006B4000DE0FA6A131C9B009B189A009A187B6839
:1006C4009B00101C191CFFF7FBFC031C7B637B6B5A
:1006D400181C6421FFF7F4FC031C1B013B633B6BF8
:1006E4001B09642253437A6BD31ABB62134B1B68F6
:1006F4001A6880231B0213400ED0BB6ADB0032331E
:10070400181C6421FFF7DCFC031C1A1C072313408C
:100714003A6B13433B630DE0BB6A1B013233181C75
:100724006421FFF7CDFC031C1A1C0F2313403A6B02
:1007340013433B63BD460EB080BDC046000000209D
:1007440080B584B000AF78603960144B7A681A6061
:10075400134B3A681A60134A134B101C191C0122DC
:1007640000F060FD0F4A114B101C191C012200F00F
:1007740059FD3B1C0C331B221A703B1C0C3300220A
:100784005A703B1C0C3301229A703B1C0C33181C0E
:1007940000F002FBBD4604B080BDC04674020020D8
:1007A4007802002000380140050105000701070018
:1007B40080B500AF134A144B101C191C00F074FDD3
:1007C400031C002B08D0114B1A68114B1B689B8C1F
:1007D4009BB2DBB2181C90470A4A0E4B101C191C22
:1007E40000F062FD031C002B0AD0094B1B68084A69
:1007F4001268D269C0218A43DA61074B1B689847A3
:10080400BD4680BD0038014005010500740200208A
:1008140000000020070107007802002080B500AF27
:10082400044B00221A60044B181C00F009F9BD4661
:1008340080BDC046480000204D09000880B584B042
:1008440000AF021CBB1D1A80074B1B68FB6000E055
:10085400001C054B1A68FB68D21ABB1D1B889A4200
:10086400F6D3BD4604B080BD4800002080B584B0F6
:1008740000AF021CFB1D1A70FB1D1A78391C0F31C6
:100884001748131C5B009B189B00C31808331B7884
:100894000B703B1C0F331B78012B19D1114B1968BA
:1008A400FB1D1A780E48131C5B009B189B001B58F9
:1008B400C91AFB1D1A780A48131C5B009B189B007D
:1008C400C3185B68994203D33B1C0F3302221A708E
:1008D4003B1C0F331B78181CBD4604B080BDC046BA
:1008E400180000204800002080B582B000AF0A1C28
:1008F400FB1D011C19703B1D1A80FB1D1A78104B3F
:1009040018681049131C5B009B189B005850FB1D72
:100914001A783B1D19880B48131C5B009B189B001D
:10092400C3185960FB1D1A780649131C5B009B18F9
:100934009B00CB18083301221A70BD4602B080BD5B
:10094400480000201800002080B500AF034B1B684E
:100954005A1C024B1A60C046BD4680BD48000020A8
:10096400B0B582B000AF021C3960FB1D1A70FB1DCC
:100974001B787F2B32D93049FB1D1B781A1C0F239F
:100984001340083B98082C4AFB1D1B781C1C0F23A2
:100994002340083B9B0806339B00D3185B68FA1D71
:1009A4001278141C03222240D200FF24251C9540F7
:1009B4002A1CD2431A403B689C01FF231C40FB1DA8
:1009C4001B781D1C03232B40DB00251C9D402B1C86
:1009D4001A43831D9B00CB185A6029E0174BFA1D5C
:1009E400127852B292081549F81D007840B2800876
:1009F400C03080004158F81D0078041C03202040BA
:100A0400C000FF24251C8540281CC04308403968C9
:100A14008C01FF210C40F91D09780D1C032129408C
:100A2400C900251C8D40291C0143C0329200D150BD
:100A3400BD4602B0B0BDC04600ED00E000E100E0FC
:100A440090B583B000AF78600E4B7A681A600E4C94
:100A54000E4B1B68181CFA235901FFF731FB031CCA
:100A6400013B636001235B42181C0221FFF778FFFE
:100A7400054B00229A60044B03221A60C046BD460F
:100A840003B090BD7C02002010E000E014000020C0
:100A940080B500AF024B1B689847BD4680BDC04679
:100AA4007C02002080B584B000AF786039600023F8
:100AB400FB600023BB60104B1B68FB607B683E221D
:100AC400111C99400B1CDA43FB681340FB603B6824
:100AD4001A683B685B681343BB607B68BA68111C87
:100AE40099400B1CFA681343FB60034BFA681A60C5
:100AF400BD4604B080BDC0460074004090B583B0CC
:100B040000AF78600A1CFB1C1A70FB1C1B78002BBE
:100B14000AD00C4B0B4A11687A680120041C9440DB
:100B2400221C0A431A600AE0064B064A12687968D6
:100B34000120041C8C40211CC9430A401A60BD4694
:100B440003B090BD0074004080B584B000AF7860FD
:100B54000A1CBB1C1A800023FB60074BFB60FA686D
:100B64007B68D3180833FB60FB68BA1C12881A60D0
:100B7400BD4604B080BDC0460074004080B584B05A
:100B840000AF78600023FB60074BFB607B689A082A
:100B9400FB68D3182C33FB60FB681B689BB2181CE2
:100BA400BD4604B080BDC0460074004080B586B028
:100BB40000AF7860396000237B6100233B61002330
:100BC400FB6000237B6185E07B690122101C984057
:100BD400031C3B613B681B683A691340FB60FA687D
:100BE4003B699A4273D13B681B79012B03D03B6864
:100BF4001B79022B38D17B689B687A6952000321E8
:100C0400081C9040021CD2431A407B689A607B689F
:100C14009A683B685B79191C7B695B00081C9840E7
:100C2400031C1A437B689A607B689B889BB27A6931
:100C340092B20121081C9040021C92B2D24392B29B
:100C440013409AB27B689A807B689B889AB23B680F
:100C54009B79191C7B699BB2081C9840031C9BB2AE
:100C640013439AB27B689A807B681B687A69520046
:100C74000321081C9040021CD2431A407B681A606E
:100C84007B681A683B681B79191C7B695B00081C2C
:100C94009840031C1A437B681A607B68DB687A6996
:100CA40092B252000321081C9040021CD2431A4005
:100CB4007B68DA607B68DA683B68DB79191C7B69DE
:100CC4005B00081C9840031C1A437B68DA607B694C
:100CD40001337B617B690F2B00D875E7BD4606B0F5
:100CE40080BDC04680B582B000AF78607B681B8A47
:100CF4009BB2181CBD4602B080BDC04690B585B0FD
:100D040000AF7860BB1C19807B1C1A700023FB6049
:100D14000023BB607B1C1A78BB1C198807230B407B
:100D24009B00111C99400B1CFB60BB1C1B88DB083F
:100D34009BB21A1CBB1C1B88DB089BB2191C7B686A
:100D440008318900CB58B91C088807210140890063
:100D54000F20041C8C40211CC94319407B680832B5
:100D64009200D150BB1C1B88DB089BB21A1C7B6809
:100D740008329200D258FB681343BB60BB1C1B882B
:100D8400DB089BB21A1C7B6808329200B968D15008
:100D9400BD4605B090BDC04680B584B000AF786054
:100DA4000023FB607B689B78002B3CD0244B7A6843
:100DB40012789208D2B2C0329200D358FB607B689A
:100DC4001B781A1C03231340DB00FF22101C9840DD
:100DD400031CDA43FB681340FB607B685B789A0171
:100DE400FF231A407B681B78191C03230B40DB008C
:100DF400111C99400B1CFA681343FB60104B7A6872
:100E040012789208D2B2C0329200F968D1500C4BD9
:100E14007A681278111C1F220A400121081C904094
:100E2400021C1A6009E0064A7B681B78191C1F2300
:100E34000B40012199408023D150BD4604B080BDB0
:100E440000E100E080B588B000AF78600023FB616A
:100E54000023BB6100237B6100233B610023FB6013
:100E6400654B5A680C231340FB61FB69042B07D0C4
:100E7400082B09D0002B30D17B68604A1A6030E01F
:100E84007B685E4A1A602CE05B4B5A68F0239B0334
:100E94001340BB61584B5A6880235B0213407B614B
:100EA400BB699B0C0233BB617B69002B05D1BB6919
:100EB400534A5A437B681A6013E04F4BDA6A0F2394
:100EC400134001333B614D483969FFF7F9F8031CBE
:100ED400BA695A437B681A6003E07B68474A1A6020
:100EE400C046454B5A68F0231340FB61FB691B095C
:100EF400FB61444AFB69D3181B78DBB2FB607B6857
:100F04001A68FB68DA407B685A603B4B5A68E023F6
:100F1400DB001340FB61FB691B0AFB61394AFB6977
:100F2400D3181B78DBB2FB607B685A68FB68DA4035
:100F34007B689A60304B1A6B80235B00134003D1AB
:100F44007B68314ADA6010E02B4B5A688023DB015E
:100F5400134005D17B689B685A087B68DA6004E01B
:100F64007B689B689A087B68DA60234B1A6B402382
:100F7400134003D17B68254A1A6103E07B68802211
:100F840012021A611C4B1A6B1023134003D17B68A5
:100F94001A4A5A6103E07B681A687B685A61164BE7
:100FA4001A6B0323134004D17B689A687B689A61A7
:100FB4001EE0114B1A6B03231340012B04D17B68F1
:100FC4001A687B689A6113E00B4B1A6B0323134076
:100FD400022B04D17B68802212029A6108E0064B3E
:100FE4001A6B03231340032B02D17B68034A9A61D3
:100FF400BD4608B080BDC0460010024000127A0011
:1010040000093D0004000020809FD50012800000EC
:1010140080B582B000AF78600A1CFB1C1A70FB1C00
:101024001B78002B06D0084B074A51697A680A439B
:101034005A6106E0044B044A52697968C9430A407C
:101044005A61BD4602B080BD0010024080B582B036
:1010540000AF78600A1CFB1C1A70FB1C1B78002B69
:1010640006D0084B074A91697A680A439A6106E0F8
:10107400044B044A92697968C9430A409A61BD469F
:1010840002B080BD0010024080B582B000AF78602D
:101094000A1CFB1C1A70FB1C1B78002B06D0084B87
:1010A400074AD1697A680A43DA6106E0044B044AC4
:1010B400D2697968C9430A40DA61BD4602B080BD8D
:1010C4000010024080B58CB000AF78603960002316
:1010D400FB620023BB6200237B627B681B680122E6
:1010E400191C91430A1C7B681A607B685B687B62ED
:1010F4007A6A474B13407B623B689B687A6A134366
:101104007B627B687A6A5A607B681B687B627A6A56
:10111400404B13407B623B685A683B68DB681A4368
:101124003B681B6913437A6A13437B627B687A6A60
:101134001A607B689B687B627A6A374B13407B62D8
:101144003B685B697A6A13437B627B687A6A9A605C
:101154003B1C0833181CFFF775FE7A682F4B9A4224
:1011640004D13B1C08339B69BB6203E03B1C08337E
:101174009B68BB627B681A6880231B02134014D0EF
:10118400BB6A5A003B681B68101C191CFEF798FFC9
:10119400031CFB62BB6A5A003B681B68101C191CC9
:1011A400FEF7D2FF0B1C7B6210E03B681B68B86A39
:1011B400191CFEF785FF031CFB623B681B68BA6AB7
:1011C400101C191CFEF7C0FF0B1C7B623B681B68DC
:1011D4005A087B6A9A4202D8FB6A0133FB627B6835
:1011E4001A6880231B0213400AD0FA6A0F231340A3
:1011F4005B087B62FA6A0A4B1A407B6A1343FB6200
:10120400FB6A9AB27B689A81BD460CB080BDC04629
:10121400FFCFFFFFF3E9FFFFFFFCFFFF00380140B2
:10122400F0FF000080B588B000AFF860B960FB1D26
:101234001A700023BB6100237B6100233B61002300
:10124400FB61FB68FB61BB689BB21B0A9BB2BB6181
:10125400BA68FF2313407B617B690122111C99400A
:101264000B1C3B61BB69022B03D1FB690433FB619B
:1012740005E0BB69032B02D1FB690833FB61FB1D4D
:101284001B78002B06D0FB69FA6911683A690A4396
:101294001A6006E0FB69FA6912683969C9430A40B1
:1012A4001A60BD4608B080BD80B586B000AF7860D6
:1012B40039600023FB6000237B610023BB603B1C7F
:1012C400133300221A703B689BB21B0A9BB2BB60AB
:1012D4003A68FF2313407B617B690122111C99400A
:1012E4000B1C7B61BB68012B05D17B681A687B6989
:1012F40013407B610DE0BB68022B05D17B685A6803
:101304007B6913407B6104E07B689A687B691340C6
:101314007B613B681B0CFB60FB680122111C99403C
:101324000B1CFB607B68DA69FB681340FB607B691C
:10133400002B07D0FB68002B04D03B1C1333012285
:101344001A7003E03B1C133300221A703B1C133346
:101354001B78181CBD4606B080BDC04680B500AFE2
:101364001B4B1B4A126801210A431A60184B184A86
:101374005168184A0A405A60154B154A1168164AB2
:101384000A401A60124B124A1168144A0A401A6041
:101394000F4B0F4A5168124A0A405A600C4B0C4AD0
:1013A400D26A0F218A43DA62094B094A116B0D4A4A
:1013B4000A401A63064B064A526B01218A435A6358
:1013C400034B00229A6000F00FF8BD4680BDC04672
:1013D400001002400CB8FFF8FFFFF6FEFFFFFBFF12
:1013E400FFFFC0FFACFEFFFF80B500AF1D4B112215
:1013F4001A601D4B1C4A52685A601B4B1A4A5268A9
:101404005A60194B184A5168184A0A405A60164BD8
:10141400154A5268A02189030A435A60124B124AA2
:101424001268802149040A431A60C0460E4B1A68A8
:1014340080239B041340F9D00B4B0B4A52680321C1
:101444008A435A60084B084A526802210A435A6088
:10145400C046054B5A680C231340082BF9D1BD46EE
:1014640080BDC0460020024000100240FFFFC0FFC4
:1014740080B582B000AF7860024B7A681A60BD46CE
:1014840002B080BD8002002080B584B000AF7860D7
:101494003B1C0F3300221A703B1C0F3300221A70BE
:1014A40019E03B1C0F331B787A68D3181B78002B88
:1014B40000D115E00C4B1B683A1C0F321278796886
:1014C4008A181278101C98473B1C0F331A783B1C5F
:1014D4000F3301321A703B1C0F331B781F2BE0D9DA
:1014E400BD4604B080BDC0468002002080B582B0F5
:1014F40000AF78607B68181CFFF7C6FF034B181C0D
:10150400FFF7C2FFBD4602B080BDC0462C180008DC
:1015140080B584B000AF78600A1CFB1C1A703B1CB9
:101524000F3300221A703B1C0E3330221A70184BF2
:101534001B6830209847164B1B68622098473B1C59
:101544000F33FA1C12781A7016E03B1C0F331B7809
:101554000122111C99400B1C7A68134001D03123DD
:1015640000E030233A1C0E321370094B1B683A1CFE
:101574000E321278101C98473B1C0F331B783A1C10
:101584000F32591E1170002BDFD1BD4604B080BD4F
:101594008002002080B582B000AFBB1D00221A80FB
:1015A4003B1D20221A80BB1C00221A803B1C0022F7
:1015B4001A80FEF74FFE484B181CFFF759FFFFF740
:1015C4002DF900202821FFF78FF9444B181CFFF751
:1015D4008DFF00F09FF8FEF7C3FDFEF7F7FD404BCB
:1015E400181CFFF77FFB031C191C3B1C3D4A0A40D7
:1015F4001A80BB1C3A1C12881A80BB1DB91D3A1DE7
:10160400098812888A181A80BB1D1A88364B9A4298
:1016140007D9BB1D354A1A803B1D202252421A802D
:1016240009E0BB1D1B881F2B05D8BB1D00221A8097
:101634003B1D20221A800020FFF718F9031C022BFF
:1016440012D10020FFF79AFA031C002B05D1842342
:10165400DB00181C00F0A6F802E0002000F0A2F85D
:1016640000202821FFF740F90120FFF7FFF8031CB1
:10167400022B03D11A4BC02292001A85184B181C56
:10168400FFF730FB031C191C3B1C164A0A401A8046
:10169400BA1C3B1C12881B889A4217D0104BC022DC
:1016A40092009A6101206421FFF71EF90C4B181C6B
:1016B400FFF718FB031C1A1C0D4B1340181C1021B8
:1016C400FFF726FF0B4B181CFFF710FFBB1C3A1C3F
:1016D40012881A8091E7C046FD16000840180008D9
:1016E400000800480FE0FFFFFE0F0000FF0F00009E
:1016F4000FE000005818000880B582B000AF021C4B
:10170400FB1D1A70FB1D1B78181CFEF78DFEBD46D1
:1017140002B080BD80B584B000AF80231B03181CC9
:101724000121FFF775FC3B1DC02292001A603B1D8E
:1017340001221A713B1D00229A713B1D03225A712A
:101744003B1D0022DA71164A3B1D101C191CFFF7C1
:101754002DFA3B1C0F3300221A7018E0104BC022E4
:1017640092009A61FA235B00181CFFF767F80C4B90
:10177400C02292001A85FA235B00181CFFF75EF85A
:101784003B1C0F331A783B1C0F3301321A703B1C7D
:101794000F331B785BB2042BE0DDBD4604B080BD83
:1017A4000008004880B582B000AF021CBB1D1A803F
:1017B400BB1D1A88074B9A4202D9BB1D054A1A80E1
:1017C400BB1D1B880020191CFFF7BEF9BD4602B0E3
:1017D40080BDC046FF0F00000C488546002103E091
:1017E4000B4B5B58435004310A480B4B42189A4246
:1017F400F6D30A4A02E0002313600432084B9A42EB
:10180400F9D3FFF7ABFDFFF7C5FEFEE7001000209C
:101814005C180008000000201800002018000020B8
:1018240084020020FEE700000A0D0000303132334C
:101834003435363738394142434445464D61696E43
:10184400203A3A2053544D33324630204F6E6C695F
:081854006E65000000000000B9
:10185C0000380140000000000102030401020304EF
:08186C0006070809006CDC020C
:10FC000000000000000000000000000000000000F4
:10FC100000000000000000000000000000000000E4
:10FC200000000000000000000000000000000000D4
:10FC300000000000000000000000000000000000C4
:10FC400000000000000000000000000000000000B4
:10FC500000000000000000000000000000000000A4
:10FC60000000000000000000000000000000000094
:10FC70000000000000000000000000000000000084
:10FC80000000000000000000000000000000000074
:10FC90000000000000000000000000000000000064
:10FCA0000000000000000000000000000000000054
:10FCB0000000000000000000000000000000000044
:10FCC0000000000000000000000000000000000034
:10FCD0000000000000000000000000000000000024
:10FCE0000000000000000000000000000000000014
:10FCF0000000000000000000000000000000000004
:10FD000000000000000000000000000000000000F3
:10FD100000000000000000000000000000000000E3
:10FD200000000000000000000000000000000000D3
:10FD300000000000000000000000000000000000C3
:10FD400000000000000000000000000000000000B3
:10FD500000000000000000000000000000000000A3
:10FD60000000000000000000000000000000000093
:10FD70000000000000000000000000000000000083
:10FD80000000000000000000000000000000000073
:10FD90000000000000000000000000000000000063
:10FDA0000000000000000000000000000000000053
:10FDB0000000000000000000000000000000000043
:10FDC0000000000000000000000000000000000033
:10FDD0000000000000000000000000000000000023
:10FDE0000000000000000000000000000000000013
:10FDF0000000000000000000000000000000000003
:04000005080017DDFB
:00000001FF
